:03000000020006F5
:0300630002000395
:0300030002006692
:200066007582061200BA75910053B1BF43B240750D01E4F50E750FC2751001F511903600B1
:2000860075F06E74011204DB439802D2037473C0E0740EC0E07480C0E012070F15811581DE
:0400A600158180FE42
:190E73000A2048656C6C6F20776F726C64212054696F63205344434300F3
:1000AA00AE82AF8310990280FB8E998E828F832253
:2000BA00AF82759100BF0602800ABF0702800ABF080F800A75A638800875A630800375A628
:2000DA0030759100A2AF9200C2AF75C7AA75C755439F01A20092AF75A70075AF04759100F5
:2000FA00A2AF9200C2AF75C7AA75C75543A401A20092AFAEAEE5A604F5A6759100A2AF92E1
:20011A0000C2AF75C7AA75C75543A401A20092AFADAE759100A2AF9200C2AF75C7AA75C73B
:20013A0055539FFEA20092AFBF082E8E047F00EC2CFCEF33FF8D025302017B00EA2CFCEBE5
:20015A003FFFEC24F1FCEF34FFFF8C0374015BFDEFC313CC13CCFF8C0675C7AA75C7558EC7
:20017A008475C7AA75C7558D85759100A2AF9200C2AF75C7AA75C755539FFEA20092AF5361
:20019A0087EF22E582FF24FA500122EF2F2F9001AC730201BE0202790201ED0201F902028B
:2001BA001C02024B75820212027A7582021203EB75820012027A7582001203EB759100A216
:2001DA00AF9200C2AF75C7AA75C7555397DFA20092AF2275820212027A7582020203EB7529
:2001FA00820312027A7582031203EB759100A2AF9200C2AF75C7AA75C7555397DFA200920A
:20021A00AF2275820212027A7582021203EB75820412027A7582041203EB759100A2AF9206
:20023A0000C2AF75C7AA75C7555397DFA20092AF2275820212027A7582021203EB75820572
:20025A0012027A7582051203EB759100A2AF9200C2AF75C7AA75C7555397DFA20092AF225B
:20027A00E582FF24FA500122EF2F2F9002897302029B0203780202C90202EC02030C0203A3
:20029A0042759100A2AF9200C2AF75C7AA75C75553977FA20092AF759100A2AF9200C2AF8B
:2002BA0075C7AA75C755439740A20092AF80FE759100A2AF9200C2AF75C7AA75C755439787
:2002DA0020A20092AF74DF4596FFBFDF0280F62280F3759100A2AF9200C2AF75C7AA75C7AD
:2002FA0055439710A20092AF74EF4596FFBFEF6E80F6759100A2AF9200C2AF75C7AA75C777
:20031A0055439780A20092AF759100A2AF9200C2AF75C7AA75C755439740A20092AF74F7F8
:20033A004596FFBFF73880F6759100A2AF9200C2AF75C7AA75C755439780A20092AF759151
:20035A0000A2AF9200C2AF75C7AA75C7555397BFA20092AF74BF4596FFBFBF0280F622AF58
:20037A0082C201759100EF24FA404CEF2F90038B73800A8042800A802080368038D2018099
:20039A0036759100A2AF9200C2AF75C7AA75C7555397DFA20092AF801E759100A2AF920009
:2003BA00C2AF75C7AA75C7555397EFA20092AF8006D2018002D201300116759100A2AF92A1
:2003DA0000C2AF75C7AA75C75553973FA20092AF22AF82C202759100A2AF9200C2AFEF248B
:2003FA00FA5003020478EF2F90040673800A806E800A803680628064D2028062759100A211
:20041A00AF9200C2AF75C7AA75C7555396FBA20092AF759100A2AF9200C2AF75C7AA75C756
:20043A00555396FDA20092AF8034759100A2AF9200C2AF75C7AA75C755439604A20092AF3F
:20045A00759100A2AF9200C2AF75C7AA75C7555396FDA20092AF8006D2028002D202300206
:20047A002C759100A2AF9200C2AF75C7AA75C7555396FBA20092AF759100A2AF9200C2AF44
:12049A0075C7AA75C755439602A20092AFA20092AF2216
:04005F00C203C20412
:2004AC00C0D0C091309808D20485990B5398FEA299D091D0D032C09130F80853F8FE859A40
:2004CC000CD20530F90620030353F8FDD09132AC82AD83AEF0FFE4F591B50D0280107401CF
:2004EC00B50D0280687402B50D030205D222759850438920438780759100438E107591008E
:20050C0053C4DF8C00EDC4C8C4540F68C8540FC868C8F9EEC454F049F98E02EFC4CAC454CC
:20052C000F6ACA540FCA6ACAFB850E18850F1985101A85111B888289838AF0EB120682A89B
:20054C0082C3E498F58D43884043A8102275985043878053C4F875910043C4208C00EDC404
:20056C00C8C4540F68C8540FC868C8F9EEC454F049F98E02EFC4CAC4540F6ACA540FCA6AC5
:20058C00CAFB850E18850F1985101A85111B888289838AF0EB12068285821285831385F014
:2005AC0014F515E4C39512E49513F974019514E4951589C6A812C3E498F888C575910043BC
:2005CC00C40843A8102275F85075C480EDC4CCC4540F6CCC540FCC6CCCFDEEC454F04DFD30
:2005EC00EFC4CEC4540F6ECE540FCE6ECEFF850E18850F1985101A85111B8C828D838EF04B
:20060C00EF120682AC82AD83AEF0FFE4C39CE49DF974019EE49F89C6C3E49CFC8CC5759112
:20062C000043C408759100439C0122AF82E4F591BF0001047D007005BF011280093098FD26
:20064C00AD99C298800730F8FDAD9AC2F88D8222AF82C091759100BF00028005BF011480EE
:16066C000AC29985189920990A80FBC2F985189A20F9FDD0912214
:20068200FB7A20E4FCFDFEFFE5822582F582E58333F583E5F033F5F0EB33FB4017DAE980B1
:2006A20042E5822582F582E58333F583E5F033F5F0EB33FBEC33FCED33FDEE33FEEF33FFE0
:2006C200EC9518ED9519EE951AEF951B4013EC9518FCED9519FDEE951AFEEF951BFF43822A
:0506E20001DABEEB226D
:06003500E478FFF6D8FD9F
:200013007900E94400601B7A00900E97780175A000E493F2A308B8000205A0D9F4DAF275EE
:02003300A0FF2C
:20003B007800E84400600A790175A000E4F309D8FC7800E84400600C7900900001E4F0A3C3
:04005B00D8FCD9FAFA
:2006E700C0178581177E008E831200AAD0172285823185833285F033E4F52EF52FF53085BC
:2007070016349006E70207D0C017E581F51724FBFF8F34E4F52EF52FF530E51724FBF8861F
:10072700310886320886339006E71207D0D01722A1
:20073700AF82C024C025C0261207448007C022C0238F8222158115811581052CE4B52C022C
:20075700052D22AF8274302FFF24C6500B74072FFFE52160034307208F82020737E582FFB3
:20077700C4540FF582C00712075AD007740F5FF58202075A858218AB27AC28AD29AE2AAADA
:200797002B751A208A07EF2FF519EE2354014519FAEB2BFBEC33FCED33FDEE33FEC3EA9543
:2007B700184008EAC39518FA430301D51AD68B278C288D298E2A8A2B2285822285832385DE
:2007D7002E24852F25853026E4F52CF52DAD31AE32AF338D828E838FF0120E53FC74012D85
:2007F700F531E43EF5328F33ECFF7003020E17BF25028003020E0FE4F535F536F537F53812
:20081700F539F53AF53BF53CF53EF54BF54C753FFF7540FF853145853246853347854582A5
:200837008546838547F0120E53F548A38582458583468545318546328547337425B5480815
:20085700854882120737808574D025485068E54824C6406274FFB53F36B54033854B188589
:200877004C1990000A120E3685824985834AAA487E00EA2549FAEE354AFEEA24D0F54BEE31
:2008970034FFF54CE54B454C7093753601808E853F1885401990000A120E36AE82AB83AA9D
:2008B700487D00EA2EFEED3BFBEE24D0F53FEB34FFF540020834742EB5481574FFB53F055C
:2008D700B540028003020834E4F53FF540020834749F2548500EE548248540085348DF75D3
:2008F700210180037521007420B5480302099A742BB54803020994742DB5480280797442E0
:20091700B548030209A07443B548030209AC7444B54803020B307446B54803020B477448E8
:20093700B548030208347449B54803020B30744AB54803020834744CB548028052744FB563
:200957004803020B387450B54803020AC57453B5480280627454B548030208347455B548E7
:2009770003020B3D7458B54803020B42745AB54803020834020B4C753501020834753701FD
:20099700020834753801020834753A01020834753B01020834E53A600AE53414F989348746
:2009B70006800BE53424FEFB8B348B0187068E82120737020B5AE53424FDFE8E348E0187AA
:2009D7000209870309870619198A278B288E298A828B838EF0120E1E85824585834674FFA5
:2009F700B53F09B5400685453F854640E5357037C3E545954BE546954C502CE54BC39545F1
:200A1700F549E54C9546F54AAA49AE4A154974FFB54902154AEA4E60087582201207378094
:200A3700E785494B854A4CAB3FAE408527828528838529F0120E53FA8A436034C3E49B742C
:200A5700808EF063F08095F050261BBBFF011E854382C006C003120737D003D006AA27AC76
:200A770028AD290ABA00010C8A278C288D2980BBE5357003020B5AC3E545954BE546954C6D
:200A97004003020B5AE54BC39545F549E54C9546F54AAA49AE4A154974FFB54902154AEA3A
:200AB7004E7003020B5475822012073780E4E53424FDFE8E348E01870209870309870619DE
:200AD700198A278B288E29AE29BE800040047B438014BE600040047B50800BBE4000400426
:200AF7007B4980027B588B82C00312073775823A120737758230120737758278120737D01F
:200B170003BB4902800BBB50028006852882120774852782120774802A753901753E0A808A
:200B370022753E08801D753E0A8018753E108013753C01800E854882120737800685494BFB
:200B5700854A4CE53C6060E53424FCFE8E348E01874B09874C09874D09874E191919854B76
:200B770027854C28854D29854E2A75278C75280E75298085274B85284C85294D7401254B85
:200B9700FAE4354CFBAE4D8A278B288E29854B82854C83854DF0120E53FEFB70030207E49A
:200BB7008B8212073780CCE53E70030207E4E53A602BE53414F9893487068E027B007D0050
:200BD7007E008A278B288D298E2AE5397064AA27FBFDFE8A278B288D298E2A8055E53B60CE
:200BF70021E53424FCFE8E348E0187020987030987050987061919198A278B288D298E2AD1
:200C17008030E53424FEFE8E348E01870309870619EEFA3395E0FDFE8B278A288D298E2AED
:200C3700E539700EAA27AB28FDFE8A278B288D298E2AE5396023E52A30E71BC3E49527FB50
:200C5700E49528FCE49529FDE4952AFE8B278C288D298E2A8003753900753D0179547D009E
:200C77007E00752B00853E82C006C005C00112078BD001D005D006E53D7014E52BC454F0D0
:200C9700FCE52BC4540F4204E7FB4CF7198002A72B0DBD00010EE53DB40100E433F53DE554
:200CB7002745284529452A70B989448D418E42E54B454C7005754B01F54CE536702DE5350E
:200CD7007029AA4BAB4CAC410C7E00C3EC9AEE9B5015758220C003C002120737D002D00339
:200CF7001ABAFF011B80DF8A4B8B4CE539601175822D120737154B74FFB54B02154C802EFC
:200D1700E54145426028E537601175822B120737154B74FFB54B02154C8013E538600F75BE
:200D37008220120737154B74FFB54B02154CE5357033AD4BAE4C8D038E041DBDFF011EC3E8
:200D5700E5419BE5429C503EE53660067B307C0080047B207C008B82C006C005120737D06F
:200D770005D00680D1C3E541954BE542954C500FE54BC39541F54BE54C9542F54C800BE43F
:200D9700F54BF54C80048D4B8E4CA944AD41AE428D028E041DBDFF011EEA4C6030E53DB405
:200DB7000100E433F53D700A09E7C4540FFC8C2B80078704740F5CF52B852B82C006C005C0
:200DD700C00112075AD001D005D00680C3E53570030207E4AD4BAE4C8D038E041DBDFF01A1
:200DF7001EEB4C70030207E4758220C006C005120737D005D00680E08F821207370207E4DC
:070E1700852C82852D83224A
:0B0E8C003C4E4F20464C4F41543E00AE
:180E1E00AA82AB83120E536003A380F8C3E5829AF582E5839BF5832299
:1D0E3600E5828518F0A4C582C0F08519F0A4D0F025F0C5838518F0A42583F583224E
:0D000600758154120E6FE582600302000345
:1C0E530020F71430F6148883A88220F507E6A88375830022E280F7E49322E022AE
:040E6F007582002266
:00000001FF
